{
  "_format": "hh-sol-artifact-1",
  "contractName": "RockPaperScissorsFactory",
  "sourceName": "contracts/RockPaperScissors.sol",
  "abi": [
    {
      "inputs": [],
      "stateMutability": "nonpayable",
      "type": "constructor"
    },
    {
      "inputs": [
        {
          "internalType": "uint256",
          "name": "_wager",
          "type": "uint256"
        },
        {
          "internalType": "uint256",
          "name": "_choiceIndex",
          "type": "uint256"
        },
        {
          "internalType": "address",
          "name": "_player2",
          "type": "address"
        }
      ],
      "name": "createRSP",
      "outputs": [],
      "stateMutability": "nonpayable",
      "type": "function"
    },
    {
      "inputs": [
        {
          "internalType": "uint256",
          "name": "",
          "type": "uint256"
        }
      ],
      "name": "deployedRPSAddress",
      "outputs": [
        {
          "internalType": "address",
          "name": "",
          "type": "address"
        }
      ],
      "stateMutability": "view",
      "type": "function"
    },
    {
      "inputs": [],
      "name": "getDeployedGames",
      "outputs": [
        {
          "internalType": "address[]",
          "name": "",
          "type": "address[]"
        }
      ],
      "stateMutability": "view",
      "type": "function"
    },
    {
      "inputs": [],
      "name": "owner",
      "outputs": [
        {
          "internalType": "address",
          "name": "",
          "type": "address"
        }
      ],
      "stateMutability": "view",
      "type": "function"
    }
  ],
  "bytecode": "0x608060405234801561001057600080fd5b5033600160006101000a81548173ffffffffffffffffffffffffffffffffffffffff021916908373ffffffffffffffffffffffffffffffffffffffff160217905550612529806100616000396000f3fe60806040523480156200001157600080fd5b5060043610620000525760003560e01c80638da5cb5b1462000057578063eae81c371462000079578063f41df6e2146200009b578063f7b4131814620000bb575b600080fd5b62000061620000f1565b6040516200007091906200042e565b60405180910390f35b6200008362000117565b6040516200009291906200044b565b60405180910390f35b620000b96004803603810190620000b3919062000321565b620001a7565b005b620000d96004803603810190620000d39190620002f5565b62000279565b604051620000e891906200042e565b60405180910390f35b600160009054906101000a900473ffffffffffffffffffffffffffffffffffffffff1681565b606060008054806020026020016040519081016040528092919081815260200182805480156200019d57602002820191906000526020600020905b8160009054906101000a900473ffffffffffffffffffffffffffffffffffffffff1673ffffffffffffffffffffffffffffffffffffffff168152602001906001019080831162000152575b5050505050905090565b60008383423385600160009054906101000a900473ffffffffffffffffffffffffffffffffffffffff16604051620001df90620002b9565b620001f0969594939291906200046f565b604051809103906000f0801580156200020d573d6000803e3d6000fd5b5090506000819080600181540180825580915050600190039060005260206000200160009091909190916101000a81548173ffffffffffffffffffffffffffffffffffffffff021916908373ffffffffffffffffffffffffffffffffffffffff16021790555050505050565b600081815481106200028a57600080fd5b906000526020600020016000915054906101000a900473ffffffffffffffffffffffffffffffffffffffff1681565b611f6c806200058883390190565b600081359050620002d88162000553565b92915050565b600081359050620002ef816200056d565b92915050565b6000602082840312156200030857600080fd5b60006200031884828501620002de565b91505092915050565b6000806000606084860312156200033757600080fd5b60006200034786828701620002de565b93505060206200035a86828701620002de565b92505060406200036d86828701620002c7565b9150509250925092565b600062000385838362000391565b60208301905092915050565b6200039c8162000515565b82525050565b620003ad8162000515565b82525050565b6000620003c082620004ec565b620003cc818562000504565b9350620003d983620004dc565b8060005b8381101562000410578151620003f4888262000377565b97506200040183620004f7565b925050600181019050620003dd565b5085935050505092915050565b620004288162000549565b82525050565b6000602082019050620004456000830184620003a2565b92915050565b60006020820190508181036000830152620004678184620003b3565b905092915050565b600060c0820190506200048660008301896200041d565b6200049560208301886200041d565b620004a460408301876200041d565b620004b36060830186620003a2565b620004c26080830185620003a2565b620004d160a0830184620003a2565b979650505050505050565b6000819050602082019050919050565b600081519050919050565b6000602082019050919050565b600082825260208201905092915050565b6000620005228262000529565b9050919050565b600073ffffffffffffffffffffffffffffffffffffffff82169050919050565b6000819050919050565b6200055e8162000515565b81146200056a57600080fd5b50565b620005788162000549565b81146200058457600080fd5b5056fe6080604052731f9061b953bba0e36bf50f21876132dcf276fc6e6000806101000a81548173ffffffffffffffffffffffffffffffffffffffff021916908373ffffffffffffffffffffffffffffffffffffffff16021790555060008054906101000a900473ffffffffffffffffffffffffffffffffffffffff16600160006101000a81548173ffffffffffffffffffffffffffffffffffffffff021916908373ffffffffffffffffffffffffffffffffffffffff160217905550348015620000c657600080fd5b5060405162001f6c38038062001f6c8339818101604052810190620000ec919062000563565b82600260006101000a81548173ffffffffffffffffffffffffffffffffffffffff021916908373ffffffffffffffffffffffffffffffffffffffff16021790555080600360006101000a81548173ffffffffffffffffffffffffffffffffffffffff021916908373ffffffffffffffffffffffffffffffffffffffff1602179055508560078190555061025884620001859190620006cd565b60088190555082600460006101000a81548173ffffffffffffffffffffffffffffffffffffffff021916908373ffffffffffffffffffffffffffffffffffffffff160217905550600560009054906101000a90505060008514156200023c576000600a60006101000a81548160ff0219169083600281111562000231577f4e487b7100000000000000000000000000000000000000000000000000000000600052602160045260246000fd5b0217905550620002fd565b60018514156200029e576001600a60006101000a81548160ff0219169083600281111562000293577f4e487b7100000000000000000000000000000000000000000000000000000000600052602160045260246000fd5b0217905550620002fc565b6002851415620002fb576002600a60006101000a81548160ff02191690836002811115620002f5577f4e487b7100000000000000000000000000000000000000000000000000000000600052602160045260246000fd5b02179055505b5b5b600073ffffffffffffffffffffffffffffffffffffffff168273ffffffffffffffffffffffffffffffffffffffff1614620003745781600560006101000a81548173ffffffffffffffffffffffffffffffffffffffff021916908373ffffffffffffffffffffffffffffffffffffffff1602179055505b62000387333088620003ec60201b60201c565b5085600960003373ffffffffffffffffffffffffffffffffffffffff1673ffffffffffffffffffffffffffffffffffffffff1681526020019081526020016000206000828254620003d99190620006cd565b92505081905550505050505050620007f1565b6000600160009054906101000a900473ffffffffffffffffffffffffffffffffffffffff1673ffffffffffffffffffffffffffffffffffffffff166323b872dd8585856040518463ffffffff1660e01b81526004016200044f939291906200065d565b602060405180830381600087803b1580156200046a57600080fd5b505af11580156200047f573d6000803e3d6000fd5b505050506040513d601f19601f82011682018060405250810190620004a5919062000537565b620004e7576040517f08c379a0000000000000000000000000000000000000000000000000000000008152600401620004de906200069a565b60405180910390fd5b600190509392505050565b6000815190506200050381620007a3565b92915050565b6000815190506200051a81620007bd565b92915050565b6000815190506200053181620007d7565b92915050565b6000602082840312156200054a57600080fd5b60006200055a8482850162000509565b91505092915050565b60008060008060008060c087890312156200057d57600080fd5b60006200058d89828a0162000520565b9650506020620005a089828a0162000520565b9550506040620005b389828a0162000520565b9450506060620005c689828a01620004f2565b9350506080620005d989828a01620004f2565b92505060a0620005ec89828a01620004f2565b9150509295509295509295565b62000604816200072a565b82525050565b600062000619601683620006bc565b91507f546f6b656e207472616e73666572206661696c65642e000000000000000000006000830152602082019050919050565b62000657816200076a565b82525050565b6000606082019050620006746000830186620005f9565b620006836020830185620005f9565b6200069260408301846200064c565b949350505050565b60006020820190508181036000830152620006b5816200060a565b9050919050565b600082825260208201905092915050565b6000620006da826200076a565b9150620006e7836200076a565b9250827fffffffffffffffffffffffffffffffffffffffffffffffffffffffffffffffff038211156200071f576200071e62000774565b5b828201905092915050565b600062000737826200074a565b9050919050565b60008115159050919050565b600073ffffffffffffffffffffffffffffffffffffffff82169050919050565b6000819050919050565b7f4e487b7100000000000000000000000000000000000000000000000000000000600052601160045260246000fd5b620007ae816200072a565b8114620007ba57600080fd5b50565b620007c8816200073e565b8114620007d457600080fd5b50565b620007e2816200076a565b8114620007ee57600080fd5b50565b61176b80620008016000396000f3fe608060405234801561001057600080fd5b50600436106101005760003560e01c8063778bb8a311610097578063c1b9310c11610066578063c1b9310c1461028f578063d30895e414610299578063dfbf53ae146102b7578063e5ad4c5f146102d557610100565b8063778bb8a3146102075780638da5cb5b146102375780639288024c14610255578063a9afbec91461027157610100565b80633197cbb6116100d35780633197cbb61461018f5780634273601c146101ad5780634a6975d1146101cb57806359a5f12d146101e957610100565b8063148bad6c146101055780631a89cdd01461012357806323b872dd1461014157806331703fd214610171575b600080fd5b61010d6102f1565b60405161011a9190611514565b60405180910390f35b61012b610304565b6040516101389190611514565b60405180910390f35b61015b60048036038101906101569190611295565b610317565b60405161016891906114f9565b60405180910390f35b610179610414565b60405161018691906114f9565b60405180910390f35b610197610427565b6040516101a4919061158f565b60405180910390f35b6101b561042d565b6040516101c291906114a7565b60405180910390f35b6101d3610453565b6040516101e091906114f9565b60405180910390f35b6101f1610466565b6040516101fe91906114a7565b60405180910390f35b610221600480360381019061021c919061126c565b61048c565b60405161022e919061158f565b60405180910390f35b61023f6104a4565b60405161024c91906114a7565b60405180910390f35b61026f600480360381019061026a9190611349565b6104ca565b005b6102796106db565b604051610286919061158f565b60405180910390f35b6102976106e1565b005b6102a16107e4565b6040516102ae91906114a7565b60405180910390f35b6102bf61080a565b6040516102cc91906114a7565b60405180910390f35b6102ef60048036038101906102ea91906112e4565b610830565b005b600a60019054906101000a900460ff1681565b600a60009054906101000a900460ff1681565b6000600160009054906101000a900473ffffffffffffffffffffffffffffffffffffffff1673ffffffffffffffffffffffffffffffffffffffff166323b872dd8585856040518463ffffffff1660e01b8152600401610378939291906114c2565b602060405180830381600087803b15801561039257600080fd5b505af11580156103a6573d6000803e3d6000fd5b505050506040513d601f19601f820116820180604052508101906103ca9190611320565b610409576040517f08c379a00000000000000000000000000000000000000000000000000000000081526004016104009061156f565b60405180910390fd5b600190509392505050565b600a60029054906101000a900460ff1681565b60085481565b600360009054906101000a900473ffffffffffffffffffffffffffffffffffffffff1681565b600a60039054906101000a900460ff1681565b600560009054906101000a900473ffffffffffffffffffffffffffffffffffffffff1681565b60096020528060005260406000206000915090505481565b600260009054906101000a900473ffffffffffffffffffffffffffffffffffffffff1681565b60075482101561050f576040517f08c379a00000000000000000000000000000000000000000000000000000000081526004016105069061152f565b60405180910390fd5b61051a333084610317565b5081600960003373ffffffffffffffffffffffffffffffffffffffff1673ffffffffffffffffffffffffffffffffffffffff168152602001908152602001600020600082825461056a91906115bb565b9250508190555033600560006101000a81548173ffffffffffffffffffffffffffffffffffffffff021916908373ffffffffffffffffffffffffffffffffffffffff1602179055506000811415610611576000600a60016101000a81548160ff02191690836002811115610607577f4e487b7100000000000000000000000000000000000000000000000000000000600052602160045260246000fd5b02179055506106cd565b6001811415610670576001600a60016101000a81548160ff02191690836002811115610666577f4e487b7100000000000000000000000000000000000000000000000000000000600052602160045260246000fd5b02179055506106cc565b60028114156106cb576002600a60016101000a81548160ff021916908360028111156106c5577f4e487b7100000000000000000000000000000000000000000000000000000000600052602160045260246000fd5b02179055505b5b5b6106d73382610830565b5050565b60075481565b600854421015610726576040517f08c379a000000000000000000000000000000000000000000000000000000000815260040161071d9061154f565b60405180910390fd5b600460009054906101000a900473ffffffffffffffffffffffffffffffffffffffff1673ffffffffffffffffffffffffffffffffffffffff163373ffffffffffffffffffffffffffffffffffffffff161461078057600080fd5b6107ca3033600960003373ffffffffffffffffffffffffffffffffffffffff1673ffffffffffffffffffffffffffffffffffffffff16815260200190815260200160002054610317565b503373ffffffffffffffffffffffffffffffffffffffff16ff5b600460009054906101000a900473ffffffffffffffffffffffffffffffffffffffff1681565b600660009054906101000a900473ffffffffffffffffffffffffffffffffffffffff1681565b600060096000600560009054906101000a900473ffffffffffffffffffffffffffffffffffffffff1673ffffffffffffffffffffffffffffffffffffffff1673ffffffffffffffffffffffffffffffffffffffff1681526020019081526020016000205460096000600460009054906101000a900473ffffffffffffffffffffffffffffffffffffffff1673ffffffffffffffffffffffffffffffffffffffff1673ffffffffffffffffffffffffffffffffffffffff1681526020019081526020016000205461090091906115bb565b9050600060096000600460009054906101000a900473ffffffffffffffffffffffffffffffffffffffff1673ffffffffffffffffffffffffffffffffffffffff1673ffffffffffffffffffffffffffffffffffffffff16815260200190815260200160002081905550600060096000600560009054906101000a900473ffffffffffffffffffffffffffffffffffffffff1673ffffffffffffffffffffffffffffffffffffffff1673ffffffffffffffffffffffffffffffffffffffff1681526020019081526020016000208190555060006002811115610a0a577f4e487b7100000000000000000000000000000000000000000000000000000000600052602160045260246000fd5b600a60009054906101000a900460ff166002811115610a52577f4e487b7100000000000000000000000000000000000000000000000000000000600052602160045260246000fd5b1415610c99576000821415610b8457610aef30600460009054906101000a900473ffffffffffffffffffffffffffffffffffffffff1660096000600460009054906101000a900473ffffffffffffffffffffffffffffffffffffffff1673ffffffffffffffffffffffffffffffffffffffff1673ffffffffffffffffffffffffffffffffffffffff16815260200190815260200160002054610317565b50610b7e30600560009054906101000a900473ffffffffffffffffffffffffffffffffffffffff1660096000600560009054906101000a900473ffffffffffffffffffffffffffffffffffffffff1673ffffffffffffffffffffffffffffffffffffffff1673ffffffffffffffffffffffffffffffffffffffff16815260200190815260200160002054610317565b50610c94565b6001821415610c0157610bba30600560009054906101000a900473ffffffffffffffffffffffffffffffffffffffff1683610317565b5082600660006101000a81548173ffffffffffffffffffffffffffffffffffffffff021916908373ffffffffffffffffffffffffffffffffffffffff160217905550610c93565b610c2e30600460009054906101000a900473ffffffffffffffffffffffffffffffffffffffff1683610317565b50600460009054906101000a900473ffffffffffffffffffffffffffffffffffffffff16600660006101000a81548173ffffffffffffffffffffffffffffffffffffffff021916908373ffffffffffffffffffffffffffffffffffffffff1602179055505b5b611228565b60016002811115610cd3577f4e487b7100000000000000000000000000000000000000000000000000000000600052602160045260246000fd5b600a60009054906101000a900460ff166002811115610d1b577f4e487b7100000000000000000000000000000000000000000000000000000000600052602160045260246000fd5b1415610f62576001821415610e4d57610db830600460009054906101000a900473ffffffffffffffffffffffffffffffffffffffff1660096000600460009054906101000a900473ffffffffffffffffffffffffffffffffffffffff1673ffffffffffffffffffffffffffffffffffffffff1673ffffffffffffffffffffffffffffffffffffffff16815260200190815260200160002054610317565b50610e4730600560009054906101000a900473ffffffffffffffffffffffffffffffffffffffff1660096000600560009054906101000a900473ffffffffffffffffffffffffffffffffffffffff1673ffffffffffffffffffffffffffffffffffffffff1673ffffffffffffffffffffffffffffffffffffffff16815260200190815260200160002054610317565b50610f5d565b6002821415610eca57610e8330600560009054906101000a900473ffffffffffffffffffffffffffffffffffffffff1683610317565b5082600660006101000a81548173ffffffffffffffffffffffffffffffffffffffff021916908373ffffffffffffffffffffffffffffffffffffffff160217905550610f5c565b610ef730600460009054906101000a900473ffffffffffffffffffffffffffffffffffffffff1683610317565b50600460009054906101000a900473ffffffffffffffffffffffffffffffffffffffff16600660006101000a81548173ffffffffffffffffffffffffffffffffffffffff021916908373ffffffffffffffffffffffffffffffffffffffff1602179055505b5b611227565b600280811115610f9b577f4e487b7100000000000000000000000000000000000000000000000000000000600052602160045260246000fd5b600a60009054906101000a900460ff166002811115610fe3577f4e487b7100000000000000000000000000000000000000000000000000000000600052602160045260246000fd5b14156112265760028214156111155761108030600460009054906101000a900473ffffffffffffffffffffffffffffffffffffffff1660096000600460009054906101000a900473ffffffffffffffffffffffffffffffffffffffff1673ffffffffffffffffffffffffffffffffffffffff1673ffffffffffffffffffffffffffffffffffffffff16815260200190815260200160002054610317565b5061110f30600560009054906101000a900473ffffffffffffffffffffffffffffffffffffffff1660096000600560009054906101000a900473ffffffffffffffffffffffffffffffffffffffff1673ffffffffffffffffffffffffffffffffffffffff1673ffffffffffffffffffffffffffffffffffffffff16815260200190815260200160002054610317565b50611225565b60008214156111925761114b30600560009054906101000a900473ffffffffffffffffffffffffffffffffffffffff1683610317565b5082600660006101000a81548173ffffffffffffffffffffffffffffffffffffffff021916908373ffffffffffffffffffffffffffffffffffffffff160217905550611224565b6111bf30600460009054906101000a900473ffffffffffffffffffffffffffffffffffffffff1683610317565b50600460009054906101000a900473ffffffffffffffffffffffffffffffffffffffff16600660006101000a81548173ffffffffffffffffffffffffffffffffffffffff021916908373ffffffffffffffffffffffffffffffffffffffff1602179055505b5b5b5b5b505050565b60008135905061123c816116f0565b92915050565b60008151905061125181611707565b92915050565b6000813590506112668161171e565b92915050565b60006020828403121561127e57600080fd5b600061128c8482850161122d565b91505092915050565b6000806000606084860312156112aa57600080fd5b60006112b88682870161122d565b93505060206112c98682870161122d565b92505060406112da86828701611257565b9150509250925092565b600080604083850312156112f757600080fd5b60006113058582860161122d565b925050602061131685828601611257565b9150509250929050565b60006020828403121561133257600080fd5b600061134084828501611242565b91505092915050565b6000806040838503121561135c57600080fd5b600061136a85828601611257565b925050602061137b85828601611257565b9150509250929050565b61138e81611611565b82525050565b61139d81611623565b82525050565b6113ac8161166c565b82525050565b60006113bf6015836115aa565b91507f4d696e696d756d207761676572206e6f74206d657400000000000000000000006000830152602082019050919050565b60006113ff6037836115aa565b91507f47616d65206973207374696c6c206163746976652e20506c656173652077616960008301527f7420666f7220506c617965722032277320696e7075742e0000000000000000006020830152604082019050919050565b60006114656016836115aa565b91507f546f6b656e207472616e73666572206661696c65642e000000000000000000006000830152602082019050919050565b6114a181611662565b82525050565b60006020820190506114bc6000830184611385565b92915050565b60006060820190506114d76000830186611385565b6114e46020830185611385565b6114f16040830184611498565b949350505050565b600060208201905061150e6000830184611394565b92915050565b600060208201905061152960008301846113a3565b92915050565b60006020820190508181036000830152611548816113b2565b9050919050565b60006020820190508181036000830152611568816113f2565b9050919050565b6000602082019050818103600083015261158881611458565b9050919050565b60006020820190506115a46000830184611498565b92915050565b600082825260208201905092915050565b60006115c682611662565b91506115d183611662565b9250827fffffffffffffffffffffffffffffffffffffffffffffffffffffffffffffffff038211156116065761160561167e565b5b828201905092915050565b600061161c82611642565b9050919050565b60008115159050919050565b600081905061163d826116dc565b919050565b600073ffffffffffffffffffffffffffffffffffffffff82169050919050565b6000819050919050565b60006116778261162f565b9050919050565b7f4e487b7100000000000000000000000000000000000000000000000000000000600052601160045260246000fd5b7f4e487b7100000000000000000000000000000000000000000000000000000000600052602160045260246000fd5b600381106116ed576116ec6116ad565b5b50565b6116f981611611565b811461170457600080fd5b50565b61171081611623565b811461171b57600080fd5b50565b61172781611662565b811461173257600080fd5b5056fea2646970667358221220ba8b2fc36d128897055350575f42597bef201dd7c04b46e464752ba9751a374d64736f6c63430008000033a2646970667358221220573ee509a1afe2e8b7c3d52fb03c1a302f3c5684ae762f1a8b372840575143ec64736f6c63430008000033",
  "linkReferences": {},
  "deployedLinkReferences": {}
}